:020000040800F2
:10000000780A002089010008D1070008F7050008D8
:10001000CD070008310200086D1200080000000042
:10002000000000000000000000000000990C000823
:10003000C504000800000000550C0008150E00085B
:10004000A3010008A3010008A3010008A301000800
:10005000A3010008A3010008A3010008A3010008F0
:10006000A3010008A3010008A3010008A3010008E0
:10007000A3010008A3010008A3010008A3010008D0
:10008000A3010008A3010008A3010008A3010008C0
:10009000A3010008A3010008A3010008A3010008B0
:1000A000A3010008A3010008A3010008A3010008A0
:1000B000A3010008790E0008A3010008A3010008AD
:1000C000A3010008A3010008A3010008A301000880
:1000D000A3010008A3010008A3010008A301000870
:1000E000A3010008A3010008A301000800F002F822
:1000F00000F03AF80AA090E8000C82448344AAF188
:100100000107DA4501D100F02FF8AFF2090EBAE885
:100110000F0013F0010F18BFFB1A43F0010318473B
:100120001027000030270000103A24BF78C878C19B
:10013000FAD8520724BF30C830C144BF04680C60ED
:10014000704700000023002400250026103A28BF35
:1001500078C1FBD8520728BF30C148BF0B60704739
:100160001FB51FBD10B510BD00F033F81146FFF7E5
:10017000F7FF01F0DDF800F051F803B4FFF7F2FFEC
:1001800003BC01F075F800000948804709480047A2
:10019000FEE7FEE7FEE7FEE7FEE7FEE7FEE7FEE737
:1001A000FEE7FEE704480549054A064B7047000094
:1001B000190E0008ED00000878040020780A0020DD
:1001C0007806002078060020704770477047704717
:1001D0007047754600F028F8AE460500694653465C
:1001E00020F00700854618B020B5FFF7DBFFBDE81B
:1001F00020404FF000064FF000074FF000084FF08E
:10020000000B21F00701AC46ACE8C009ACE8C0091E
:10021000ACE8C009ACE8C0098D4670470446AFF3AE
:1002200000802046FFF7A9FF004870471404002013
:1002300000BFFEE710B500241548006820F47020C8
:10024000134908600846006840F40020086004E094
:10025000601CC4B2012001F04DF80E48006808B1DE
:10026000C82CF5DBC82C01DB012010BD002404E004
:10027000601CC4B2012001F03DF80648006808B9CE
:10028000F02CF5DBF02C01DB0120EEE70020ECE7A1
:10029000040C0140308121422DE9F84F00F0CCF8E8
:1002A00000F0A8F8FFF7C6FFCC2000F0D1F8BE2080
:1002B00000F0CEF800F08CF8834600F089F8044690
:1002C000072C07DDE043C4B2E04300F0FF0B4FF022
:1002D000000A01E04FF0010AA1464FEA09200FFA97
:1002E00080F909EB0B000FFA80F9484601F0F6FBA4
:1002F000009001F083FA07460022094B01F080F9D3
:10030000054601F04DF90FFA80F9BAF1000F02D05D
:100310004846BDE8F88FC9F1000000B2F9E70000D7
:100320000000E43F08B50121082000F0A5FC4FF4CF
:100330008050ADF8000010208DF8030003208DF8E8
:1003400002006946064800F0BEF84FF480510448A8
:1003500000F04FF900F04EF8FFF76CFF08BD000009
:10036000000C014010B51748006820F470201549B2
:1003700008600846006840F44030086000201249D8
:100380000860022000F0B6FF01201049C1F8B0015A
:100390000C48006820F470200A490860084600688C
:1003A00040F4002008600C2000F0A4FF06488038CC
:1003B000006808B1012400E00024322000F09AFF18
:1003C000204610BD040C0140B08121420080214232
:1003D00070B50026002508E0FFF7C4FF0446E001E1
:1003E00040EA6600C6B2681CC5B2082DF4DB304690
:1003F00070BD000010B50D48006820F470200B4956
:1004000008600846006840F4403008600020084951
:10041000086040F2EE2000F06DFF01200549C1F8B0
:10042000B0010F2000F066FF10BD0000040C014079
:10043000B08121420080214210B5FFF7DBFFFFF7BA
:10044000F9FECC2000F004F8442000F001F810BDC3
:1004500070B5044600261848006820F4702016493C
:1004600008600846006840F440300860002520E03D
:1004700004F0010664106EB10020104908600220EB
:1004800000F038FF01200E49C1F8B0013C2000F017
:1004900031FF0CE00020094908603C2000F02AFFF1
:1004A00001200749C1F8B001022000F023FF681CB9
:1004B000C5B2082DDCDB70BD040C0140B0812142C7
:1004C0000080214270472DE9F041024600250026B8
:1004D000002000230024002791F803C00CF00F0532
:1004E00091F803C00CF0100CBCF1000F03D091F890
:1004F00002C04CEA050591F800C0BCF1000F31D0F4
:10050000146800202BE04FF0010C0CFA00F3B1F856
:1005100000C00CEA03069E4220D183004FF00F0C6E
:100520000CFA03F7BC4305FA03FC4CEA040491F807
:1005300003C0BCF1280F06D14FF0010C0CFA00FCEF
:10054000C2F814C00AE091F803C0BCF1480F05D10D
:100550004FF0010C0CFA00FCC2F810C0401C082837
:10056000D1D31460B1F800C0BCF1FF0F34DD546882
:1005700000202EE000F1080C4FF0010808FA0CF3FF
:10058000B1F800C00CEA03069E4221D183004FF06F
:100590000F0C0CFA03F7BC4305FA03FC4CEA040405
:1005A00091F803C0BCF1280F05D100F1080C08FA3E
:1005B0000CF8C2F8148091F803C0BCF1480F07D1C1
:1005C00000F1080C4FF0010808FA0CF8C2F810808E
:1005D000401C0828CED35460BDE8F08102460020BC
:1005E00093680B400BB1012000E00020704741618F
:1005F00070470161704700BFFEE7000001464906F1
:10060000084A926942F00102064B9A61064A526812
:1006100022F0E062044B5A601A4652680A435A605C
:1006200070470000001002400000014008B50121A1
:10063000042000F021FB0F20ADF8000048208DF8C9
:10064000030069460148FFF73EFF08BD000801406E
:1006500010B5044614B101202C4908702B480078CD
:10066000002836D001212A48FFF7B8FF78B10221CF
:100670002748FFF7B3FF50B104212548FFF7AEFF2D
:1006800028B108212248FFF7A9FF012821D10A201B
:1006900000F012FE00201D49087001211C48FFF7E0
:1006A0009DFF08B9012010BD02211948FFF796FFF0
:1006B00008B90220F7E704211548FFF78FFF08B9B2
:1006C0000320F0E708211248FFF788FFD8B904207B
:1006D000E9E701210E48FFF781FF012813D102212C
:1006E0000B48FFF77BFF01280DD104210848FFF7D5
:1006F00075FF012807D108210548FFF76FFF10B9E2
:100700000120024908700020CDE700000C00002005
:100710000008014008B50121082000F0ADFA0320CF
:10072000ADF8000010208DF8030003208DF80200C2
:1007300069460648FFF7C7FE01210448FFF759FF45
:1007400002210248FFF753FF08BD0000000C0140E2
:1007500000B5002015490861C860142048610020D8
:100760008861C8610846006840F0010008600846DA
:1007700040680F4908400D494860084600680D4927
:1007800008400A4908600846006820F48020086094
:100790000846406820F4FE00486000208860002180
:1007A0004FF0006000F008F800BD000000100240AB
:1007B0000000FFF8FFFFF6FE024A0A400243024B28
:1007C0001A60704780FFFF1F08ED00E000BFFEE7E2
:1007D0007047000070B5002100230F22C47804B3D5
:1007E000154C246804F4E064C4F5E064210AC1F106
:1007F0000403CA40447804FA03F184781440214386
:1008000009010E4C0678A155047804F01F05012457
:10081000AC4005786D11AD0005F1E025C5F800414B
:1008200009E0047804F01F050124AC40044D06786B
:10083000761145F8264070BD0CED00E000E400E0C4
:1008400080E100E002490143024A11607047000064
:100850000000FA050CED00E030B500240CE00025A6
:1008600006E00020074901EBC5010855681CC5B228
:10087000802DF6DB601CC4B2082CF0DB00F0D8F849
:1008800030BD000014000020F0B5144600267F287B
:1008900001DC3F2900DDF0BD0B46CF1701EB577798
:1008A000FF10C7F10707FAB2CF1701EB5777FF1018
:1008B000A1EBC707FDB2C5F107070123BB40DEB2BC
:1008C0004CB10A4B03EBC0039B5C3343074F07EB70
:1008D000C007BB5408E0054B03EBC0039B5CB3436C
:1008E000024F07EBC007BB5400BFD4E71400002041
:1008F00000B54848806940F008004649886146488C
:100900000068464908404449086008460068444970
:100910000843414908603F48806940F004003D4970
:1009200088614048006820F070403E4908600846F1
:10093000006840F00050086000203B49086001203A
:100940003A49C1F88C010021AE2000F057F900218E
:10095000D52000F053F90021502000F04FF900217C
:10096000A82000F04BF900213F2000F047F90021BA
:10097000D32000F043F90021084600F03FF90021A0
:10098000402000F03BF900218D2000F037F90021D4
:10099000142000F033F90021202000F02FF900216D
:1009A000022000F02BF90021A12000F027F90021FE
:1009B000C02000F023F90021DA2000F01FF9002107
:1009C000122000F01BF90021812000F017F900210E
:1009D000EF2000F013F90021D92000F00FF90021D9
:1009E000F12000F00BF90021DB2000F007F90021D5
:1009F000302000F003F90021A42000F0FFF80021CE
:100A0000A62000F0FBF80021AF2000F0F7F8FFF778
:100A100023FF00BD00100240000C0140FF0F00FF4B
:100A200000202200040801408C81214200802142E4
:100A300030B500241CE004F1B001C8B2002100F080
:100A4000DDF80021084600F0D9F80021102000F060
:100A5000D5F8002508E0084901EBC501085D012132
:100A600000F0CCF8681CC5B2802DF4DB601CC4B269
:100A7000082CE0DB30BD0000140000202DE9F04F11
:100A800080460C4615461E46A346A5F12000C5B279
:100A900000273EE00C2E07D105EB45001F4901EB76
:100AA000800010F8079004E01D4800EB051010F8D6
:100AB00007904FF0000A26E009F0800028B1214697
:100AC0004046099AFFF7E0FE09E0099808B90120BD
:100AD00000E00020024621464046FFF7D5FE4FEADF
:100AE00049604FEA1069601CC4B2A4EB0B00B0422D
:100AF00005D15C4608F1010000F0FF0806E00AF1AC
:100B0000010000F0FF0ABAF1080FD5DB00BF781C26
:100B1000C7B2B742BEDBBDE8F08F0000CA1D0008B7
:100B20003E2200082DE9FF4F81B0074691461E4640
:100B30000E9D4FF0000A002439E0301B401EC1B268
:100B40000A2000F0BFFCB9FBF0F00A21B0FBF1F283
:100B500001FB1208BAF1000F16D1701EA04213DD7E
:100B6000B8F1000F0ED10120AB4605EBDB71491047
:100B700001FB04710090C8B22B4620220299FFF7B6
:100B80007DFF12E04FF0010A0120AB4605EBDB715F
:100B9000491001FB04710090C8B208F13001CAB2DB
:100BA0002B460299FFF76AFF00BF601CC4B2B44233
:100BB000C3DB05B0BDE8F08F78B505460E46144698
:100BC00018E07A2D03DD002506F11000C6B23A2E9A
:100BD00004DD002005460646FFF73EFE012000909A
:100BE00022780C2331462846FFF748FF05F108001C
:100BF000C5B2641C20780028E3D178BD10B50A4640
:100C00001AB10123114C236002E000230F4C236032
:100C1000002114E000230E4C236000F080031BB180
:100C20000123241F236003E00023094C241F2360B9
:100C30000123074C23604306180E4B1CD9B2082928
:100C4000E8DB0123014C236010BD0000BC01214200
:100C5000948121427047000029B1064AD2690243BB
:100C6000044BDA6104E0034AD2698243014BDA6142
:100C7000704700000010024029B1064A9269024301
:100C8000044B9A6104E0034A92698243014B9A61E2
:100C90007047000000100240704710B500F002F8E5
:100CA00010BD00000CB50020019000903348006892
:100CB00040F480303149086000BF3048006800F4DB
:100CC000003000900198401C0190009818B90198DC
:100CD000B0F5A06FF1D12948006800F4003010B1E0
:100CE0000120009001E0002000900098012843D1ED
:100CF0002348006840F01000214908600846006859
:100D000020F0030008600846006840F00200086018
:100D10001A484068194948600846406848600846D3
:100D2000406840F4806048600846406820F47C10C9
:100D300048600846406840F4E8104860084600688B
:100D400040F08070086000BF0C48006800F0007040
:100D50000028F9D00948406820F00300074948609E
:100D60000846406840F00200486000BF0348406801
:100D700000F00C000828F9D10CBD00000010024062
:100D80000020024030B504460025FFF7E1FC1F4873
:100D9000006840F480301D49086000BF1B480068AF
:100DA000400C0028FAD04FF4806018494860A01E1B
:100DB000C4B20846406840EA84404860084640683B
:100DC00040F4803048601248006840F0320010491A
:100DD00008600E48006840F080700C49086000BF51
:100DE0000A480068400E0028FAD00848406840F0E1
:100DF00002000649486005E004484068C0F38705E2
:100E000005F00305022DF7D130BD000000100240AF
:100E1000002002407047000010B51348006840F001
:100E200001001149086008464068104908400E4911
:100E30004860084600680E4908400B4908600846AB
:100E4000006820F4802008600846406820F4FE0016
:100E500048604FF41F008860FFF71FFF4FF00060ED
:100E60000449086010BD0000001002400000FFF8B7
:100E7000FFFFF6FE08ED00E038B50121514800F013
:100E800030F9002840D0FFF707FA4F4908600846BC
:100E9000006800280DDA01200C232D22002100908B
:100EA0002820FFF7EBFD48480068404246490860AB
:100EB00007E001200C232022002100902820FFF7CA
:100EC000DDFD414800680A2190FBF1F40C2002236B
:100ED0002246002100903020FFF724FE3A480068A7
:100EE0000A2190FBF1F201FB12040C20012322469F
:100EF000002100904820FFF715FE0121314800F045
:100F0000E1F80020FFF7A4FB01213048FFF766FB62
:100F100038B92F480088401C2D490880142000F063
:100F2000CBF92B49088800EBD0714910A0EB4101A7
:100F3000012945D127A21E212820FFF73DFE224886
:100F400000680A2190FBF1F01B280CDA0C20012329
:100F50001A460E2100902820FFF7E4FD4FF496700A
:100F60001E4908802CE0184800680A2190FBF1F027
:100F70001B2812DB1448006890FBF1F01C280CDCE5
:100F80000C20012302220E2100902820FFF7CAFD29
:100F90004FF416701149088012E00B4800680A21CE
:100FA00090FBF1F01C280BDD0C20012303220E2105
:100FB00000902820FFF7B6FD40F2E730074908808F
:100FC00038BD000000040040080000200008014077
:100FD000040000204175746F200000000000002014
:100FE0007FB505460C4601210220FFF735FEADF81E
:100FF0000850ADF804400020ADF80A00ADF8060036
:1010000001A90E4800F0E0F8012211460B4800F05B
:1010100079F81D208DF8000000208DF801000320D4
:101020008DF8020001208DF803006846FFF7D2FB1F
:101030000121024800F049F87FBD00000004004093
:1010400030B589B005460C4601210420FFF704FEA7
:1010500001210820FFF710FE4020ADF820001820E5
:101060008DF8230003208DF8220008A91348FFF70C
:101070002AFAADF81850ADF814400020ADF81A0067
:10108000ADF8160005A90E4800F09EF86020ADF8F6
:1010900004000120ADF806000020ADF80C0001A905
:1010A000074800F039F80821054800F081F80121CF
:1010B000034800F00AF809B030BD0000000C014000
:1010C00000080040CA430282704721B1028842F002
:1010D0000102028004E002884FF6FE731A4002808B
:1010E000704730B50246002000230024158A05EA27
:1010F0000103958905EA010413B10CB1012000E058
:10110000002030BD1AB183890B43838102E08389BB
:101110008B4383817047000070B5002400220023B8
:10112000058C4FF6FE7635400584028C8388048B4F
:101130004FF68F752C40B51E2C400D882C43751E24
:101140002A400D892A434D882A43144DA8420BD0CA
:10115000134DA84208D0134DA84205D0124DA84205
:1011600002D0124DA84213D14FF6F7752A404D898F
:101170002A434FF6FB752A408D882A434FF6FF65B8
:101180002B404FF6FF552B408D892B43CD892B43A8
:1011900083800483CD888586028470BD002C014045
:1011A000003401400040014000440140004801403B
:1011B0000A460021018B4FF6F77319401143018352
:1011C0007047818670470000002202881D4B9842BC
:1011D0000ED01D4B98420BD0B0F1804F08D01B4B66
:1011E000984205D01A4B984202D01A4B984204D12B
:1011F0004FF68F731A404B881A43174B984207D00B
:10120000164B984204D04FF6FF431A40CB881A433E
:1012100002808B8883850B8803850A4B98420BD00C
:10122000094B984208D00E4B984205D00D4B98427E
:1012300002D00D4B984201D10B7A038601238382A1
:1012400070470000002C01400034014000040040C1
:1012500000080040000C0040001000400014004056
:1012600000400140004401400048014000BFFEE74B
:10127000014600BF704700004FF0E021096921F0EE
:1012800004014FF0E0221161C21700EB5272C2F369
:10129000C702074B1A701946097801EB4102C2EBED
:1012A000C1114FF6FF7202EAC101024A1180704774
:1012B0000E0000201000002001460D4A12884A430B
:1012C0004FF0E0235A6100229A6101221A6100BFA7
:1012D0004FF0E022106900F001021AB100F48032F0
:1012E000002AF5D000224FF0E0231A619A6170477E
:1012F0001000002001460D4A12784A434FF0E023C7
:101300005A6100229A6101221A6100BF4FF0E02267
:10131000106900F001021AB100F48032002AF5D001
:1013200000224FF0E0231A619A6170470E000020FE
:1013300008B50920FFF726FD4820FFF79DFF022092
:10134000FFF75CF90120FFF759F9FFF76FF94FF448
:10135000A060FFF777FAFFF7DDF9FFF7C9FA1E2063
:10136000FFF7AAFF41F61F4140F2E730FFF738FED2
:1013700041F61F4140F2E730FFF762FE4FF4FA31C9
:10138000482000F0ABF83CA200210846FFF714FC0F
:101390003CA20E210020FFF70FFC3CA21E210020E2
:1013A000FFF70AFC3BA22D210020FFF705FCFFF709
:1013B0003FFBC820FFF780FF5CE004E038A22D214E
:1013C0004020FFF7F9FBFEF7ADFF0028F6D136A26B
:1013D0002D214020FFF7F0FBFFF72AFBC820FFF785
:1013E0006BFF3249086800EBD0714910A0EB410156
:1013F000002939D12EA21E212820FFF7DDFB022172
:101400002D48FFF7EBF860B90C2001231A460E2196
:1014100000902820FFF786FB4FF49670274908605C
:1014200022E004212448FFF7D9F860B90C200123F9
:1014300002220E2100902820FFF774FB4FF4167053
:101440001E49086010E008211B48FFF7C7F858B98B
:101450000C20012303220E2100902820FFF762FBBD
:1014600040F2E730154908601448008881B21448FA
:10147000FFF7A7FEA1E7000054656D703A20202019
:101480002E20430046616E3A000000004D6F6465F7
:101490003A000000445331384232303A0000000034
:1014A0004572726F720000004F4B00000400002074
:1014B00048756D616E0000000008014000000020CA
:1014C0000008004010B50246012000E050430B0028
:1014D000A1F10104E1B2F9D110BD00002DE9F05FE6
:1014E00005460E46300100F011FB8146284905FBF8
:1014F00001F000F00BFB8246494600F00DFA07466A
:10150000384600F0CBFA84B2204600F0FFFA83465A
:10151000394600F0DBFB82464FF0834100F00AFBC6
:10152000814600F0BBFA80464FF6FF7000EA0414D3
:1015300004EB080084B21748806940F004001549A4
:1015400088610846806940F48040886112480068DC
:1015500020F47F60104908600846006840F40B6082
:1015600008600C48C06840F480400A49C8600846DA
:10157000C06820F48040C86008480480001D0088CE
:1015800042F20C0108430549091D0880BDE8F09F9F
:1015900040420F000010024004080140083801409A
:1015A0004FEA41034FEA5353A3F58063D3F11E037F
:1015B000C8BFD3F1210C0CDD4FF0004242EAC1223A
:1015C00042EA505232FA03FC8CEAE17CACEBE17067
:1015D0007047102BC4BF0020704703F5787CBCF126
:1015E000FF3F04D06FF0004282EA2100704770B5DF
:1015F00000F0B0F84992248000207047F2E7000024
:10160000DFF848C170B51CEA111E1EBF1CEA131595
:101610009EEA0C0F95EA0C0F00F06F8081EA03043C
:1016200023EA4C134EEAD47E21EA4C1141F4801196
:1016300043F48013AE44A1FB024CA0FB0365AEF162
:101640007F7E361955EB0C05A1FB034C4CF10003D2
:10165000A0FB021C16EB0C06654153F10003094286
:1016600018BF46F0010613F4007F0BD14FEA033197
:101670004FEA0530340341EA155140EA16506FF045
:1016800003020AE04FEAC3214FEAC520F40241EA0F
:10169000555140EA56506FF0020202EB2E4201EB28
:1016A000025585EACE710AD05FEA440C18BF24F0D7
:1016B000004450F1000041F1000120EAD47040F2F2
:1016C000FE7C624500D270BDA84214BF4FF080443A
:1016D0004FF04044002E08BF0024BEF1806FA8BF29
:1016E000A1F1C041BDE8704080F282804FF000005F
:1016F00001F1C04101F0004170479EEA0C0F0CEA75
:10170000131518BF95EA0C0F06D04FF0000081EAC0
:10171000030E0EF0004170BD00F01CF88900013E80
:1017200000F007B800F009B84FEA430C5FEA5C5CD0
:1017300008D081EA030100F05BB84FEA410C5FEA90
:101740005C5CF6D14FF00000014970470000FF07D4
:101750000000F87F0EF1020E2EF0030E5EF8046B0F
:10176000364205D4012A43EB030515F5001F12D8B4
:10177000012841EB010C1CF5001F0CD80ED14FEADB
:10178000D17C15F5001F0CEB4C0C0CF1020C08BFC2
:101790004CEBD37C04E04FF0080C01E04FEAD37C23
:1017A0000CEB4C0526FA05F606F00706B6F1040C1C
:1017B00006D20EEB860CBDE870404CF0010C604781
:1017C000DFE80CF0090B02024FF000414FF000007F
:1017D000A1F5002170BD19461046012851EB010406
:1017E00018BFD4F5001484BF002001F0004170BD83
:1017F0000808A0F500114FEA3101704743004FEA95
:10180000D30C4FEA3C0C43401FBF40070CF1605122
:1018100013F0FE4F70471CF0006F03D100200CF056
:10182000004170470CF0004343EA507010B540EAA5
:10183000CC0000F000FA00BF000000924FEA000167
:10184000FFF7D6BF4FF000414FF00000A1F5002197
:101850007047000090EA010F48BF81F0004100F19D
:101860004682421A3CBF801A89184FEAD0524FF084
:101870007F4C1CEA410FA2EBD15318BF9CEA026FC8
:1018800000F03B804FF0004C4CEA00204CEA012174
:1018900021FA03FC10EB0C0C1ED202F1FF325FEABE
:1018A0001C2040EBC25038BF70471CF07F0F4FEA3E
:1018B000400C18BFBCF17F4F38BF7047C3F1200305
:1018C000994008BF20F00100BCF17F4F38BF70473E
:1018D000A0F1C04000F0F5B94FEA3C00000A40EB2F
:1018E000C25028BF1CF0FF0F4FEA400CE6D018BFD3
:1018F000BCF17F4F38BF7047EAE79CEA026F05D022
:1019000010EA5C0F08BF00F00040704710B500F00F
:1019100092F900BF64FBBE3E4FF47F0C1CEAD0126C
:101920001EBF1CEAD11392EA0C0F93EA0C0F00F0D1
:10193000858090EA010F48BF42F4807240F4000CA9
:1019400041F400002CF07F4120F07F4000B581423F
:10195000A2EB03020FF2081CACEB504EC0F10000EA
:101960009EF800E04FEA4E0E00FB0EFC38BF490027
:101970004FEA2C1C02F5FA020CFB0EF34FEACE1EC6
:101980004FEA112C4FEAC1210EEB635E42EB22427B
:101990000EFB0CFC4FEA1C5300FB03114FEA112C09
:1019A0004FEA01310EFB0CFC4FEADC4C00FB0C1142
:1019B000C14228BF09184CEB03335DF804EB10EB70
:1019C000410143EBC250B2F57C0F38BF704729D5B7
:1019D00012F0F00F1CBF00F1C04000F00040704753
:1019E000008182838485868788898B8C8D8E8F91F8
:1019F0009293959697999A9C9D9FA0A2A3A5A7A81C
:101A0000AAACAEB0B2B3B5B7B9BCBEC0C2C5C7C947
:101A1000CCCED1D4D7D9DCDFE2E6E9ECF0F3F7FAAB
:101A2000FE0000004FEA400C0CF1807CBCF17E4FC0
:101A300028BF7047B0F1C04000F043B990EA010FF1
:101A40000CEAD11348BF42F48072624538BF634547
:101A500007D213F47F0F16D080EA010000F0004097
:101A6000704710B500F0E7F8097EFC3E00F005B8BD
:101A700080EA010000F00040704780EA010000F0B9
:101A8000004000F01EB912F47F0F04BF02487047F7
:101A900080EA010000F015B90000C07FC10DD1F14E
:101AA0009E0206DB4FEA002343F0004323FA02F0D4
:101AB0007047004207D54FEA4001B1F1FE4F02D214
:101AC0004FF00000704710B500F0B5F8499224803F
:101AD000002070476FEA20007047000010F00041BE
:101AE00048BF4042B0FA80F310FA03F2C3F19D03FD
:101AF0000BD051EAC35101EB1220530638BF704797
:101B000000F1010008BF20F001007047B0FA80F337
:101B100010FA03F2C3F19D030AD0D90501EB12209C
:101B2000530638BF704700F1010008BF20F00100E4
:101B3000704700004FF47F0C1CEAD0121EBF1CEA55
:101B4000D11392EA0C0F93EA0C0F00F0478090EA51
:101B5000010F48BF42F480724FF0004C4CEA002065
:101B60004CEA012102EB0302A0FB0113A2F50002E3
:101B7000002918BF43F001035B0028BF4FEA33037D
:101B800042EB22425FEA132C4CEBC2502EBFBCEB5F
:101B9000436FB2F57C0F70474FEA036CBCF1004F06
:101BA00008BF20F00100B2F57C0F38BF70470BD59D
:101BB00082F0FF0212F5803FC8BF704700F1C040BD
:101BC000D8BF00F00040704700F5000C5FEA4C0CF5
:101BD00048BF7047B0F1C04000F073B890EA010F01
:101BE0000CEAD11348BF42F48072624538BF6345A6
:101BF00004D280EA010000F00040704710B500F008
:101C00001AF800BF8900013E00F007B800F009B8DB
:101C10005FEA410C5FEA1C6C08D080EA010000F02A
:101C200050B85FEA400C5FEA1C6CF6D14FF0004000
:101C3000A0F5800070470EF1020E2EF0030E5EF844
:101C4000044B244204D44FEA4102B2F17F4F11D831
:101C50004FEA4003B3F17F4F0CD80ED14FEAD07C4E
:101C6000B2F17F4F0CEB4C0C0CF1020C08BF4CEBAB
:101C7000D17C04E04FF0080C01E04FEAD17C0CEB82
:101C80004C0324FA03F404F00704B4F1040C06D264
:101C90000EEB840CBDE810404CF0010C6047DFE80F
:101CA0000CF0070802024FF00040A0F5800010BDC4
:101CB0000846420018BFD2F1807288BF00F0004091
:101CC00010BDFF2141EAD050C005704780F00040B0
:101CD00090EA010F7FF5C5AD81F0004100F007B833
:101CE00090EA010F48BF81F000413FF5BAAD421ABA
:101CF00004D882F00042A0EB020011444FEAD05217
:101D00004FF07F4C1CEA410FA2EBD15318BF9CEA65
:101D1000026F4AD04FF0004C4CEA00204CEA0121FF
:101D200021FA03FCB0EB0C0C0FD412F0FE0F36D0EE
:101D30005FEA4C001DD5001240EBC25038BF70471F
:101D40001CF03F0F18BF70470BE0A2F101025FEAE1
:101D50001C2040EBC25038BF70471CF07F0F18BFEB
:101D60007047C3F12003994014BF401E20F00100CA
:101D7000704780084FEA122308BF7047B0FA80FC12
:101D8000A2EB0C02CCF1280C60FA0CF093EA122FB3
:101D900004BF00EBC25070474FEAC3707047130A8C
:101DA0005FEADC1008BF7047F6E79CEA026F04D0D8
:101DB00010EA5C0F08BF0020704710B5FFF73BFF2B
:101DC00040DFF63E81F00040704700000000000058
:101DD000000000000000000000003F400000000084
:101DE000000000003000400030004000000009000A
:101DF0000BC03D000BC03D00090018C024407FE02F
:101E0000224031800000180024C01B000D803240A9
:101E1000018003801C4027401C80074000401000C8
:101E20006000000000000000000000000000000052
:101E30001F80204040200000402020401F800000E4
:101E40000000090006001F800600090000000400D1
:101E500004003F8004000400000000100060000047
:101E6000000000000000040004000400040004005E
:101E70000000000000400000000000000000002002
:101E800001C006003800400000001F8020402040B4
:101E900020401F800000000010403FC000400000B4
:101EA000000018C02140224024401840000010804B
:101EB0002040244024401B80000002000D0011003F
:101EC0003FC0014000003C80244024402440238047
:101ED00000001F8024402440344003800000300074
:101EE000200027C03800200000001B802440244030
:101EF00024401B8000001C0022C0224022401F8082
:101F00000000000000000840000000000000000089
:101F100000000460000000000000000004000A004F
:101F20001100208040400900090009000900090053
:101F3000000000004040208011000A00040018004A
:101F4000200023402400180000001F80204027406C
:101F500029401F400000004007C039000F0001C0A9
:101F6000004020403FC0244024401B8000001F80D0
:101F70002040204020403080000020403FC02040D2
:101F800020401F80000020403FC024402E4030C031
:101F9000000020403FC024402E00300000000F0011
:101FA0001080204022403380020020403FC00400C7
:101FB00004003FC02040204020403FC0204020403F
:101FC00000000060202020203FC020002000204092
:101FD0003FC024400B0030C0204020403FC0204084
:101FE0000040004000C03FC03C0003C03C003FC078
:101FF000000020403FC00C4023003FC020001F8055
:102000002040204020401F80000020403FC024404E
:102010002400180000001F802140214020E01FA064
:10202000000020403FC02440260019C0004018C0D6
:1020300024402440224031800000300020403FC036
:1020400020403000000020003F80004000403F80E2
:10205000200020003E0001C00700380020003800AA
:1020600007C03C0007C038000000204039C006000F
:1020700039C0204000002000384007C03840200010
:102080000000304021C02640384020C00000000041
:1020900000007FE0402040200000000070000C00A5
:1020A0000380004000000000402040207FE000004E
:1020B0000000000020004000200000000000001090
:1020C0000010001000100010001000000000400080
:1020D000000000000000000002800540054003C031
:1020E000004020003FC00440044003800000000086
:1020F00003800440044006400000000003800440C8
:1021000024403FC0004000000380054005400340DC
:102110000000000004401FC02440244020000000B4
:1021200002E0055005500650042020403FC0044006
:10213000040003C000400000044027C0004000002D
:10214000000000100010041027E0000000002040F4
:102150003FC00140070004C00440204020403FC071
:1021600000400040000007C0040007C0040003C096
:102170000000044007C00440040003C00040000009
:1021800003800440044003800000041007F0045062
:10219000044003800000000003800440045007F066
:1021A0000010044007C002400400040000000000CA
:1021B00006400540054004C00000000004001F80E8
:1021C000044000400000040007800040044007C0B5
:1021D00000400400070004C001800600040006005F
:1021E00001C0070001C006000000044006C0010055
:1021F00006C0044000000410071004E0018006003F
:1022000004000000044005C0064004400000000037
:10221000000004007BE040200000000000000000FF
:10222000FFF000000000000040207BE00400000000
:10223000000040008000400020002000400000001E
:10224000000000000000000000000000000000008E
:10225000000000001FCC000C000000000000000087
:10226000080030006000080030006000000002201C
:1022700003FC1E20022003FC1E20022000000000A0
:102280000E1811043FFF10840C78000000000F00AE
:1022900010840F3800C00778188400780000007898
:1022A0000F8410C411240E9800E400840008080074
:1022B0006800700000000000000000000000000046
:1022C0000000000007E01818200440020000000091
:1022D00040022004181807E000000000000002403F
:1022E000024001800FF001800240024000000080A7
:1022F000008000800FF80080008000800000000156
:10230000000D000E000000000000000000000000B2
:10231000008000800080008000800080008000003D
:10232000000C000C00000000000000000000000095
:102330000006001800600180060018002000000060
:1023400007F0080810041004080807F00000000057
:10235000080408041FFC0004000400000000000042
:102360000E0C10141024104411840E0C00000000F8
:102370000C1810041104110412880C7000000000E5
:1023800000E00320042408241FFC002400000000B7
:102390001F981084110411041088107000000000B0
:1023A00007F008881104110418880070000000006C
:1023B0001C00100010FC13001C00100000000000A6
:1023C0000E3811441084108411440E3800000000AF
:1023D0000700088C10441044088807F00000000033
:1023E00000000000030C030C0000000000000000CF
:1023F00000000001010600000000000000000000D5
:10240000008001400220041008081004000002208F
:1024100002200220022002200220022000000000F0
:102420001004080804100220014000800000000091
:102430000E001200100C106C10800F00000003E062
:102440000C1813E4142417C4082807D00000000453
:10245000003C03C41C40074000E4001C00041004BE
:102460001FFC1104110411040E880070000003E029
:102470000C1810041004100410081C1000001004A4
:102480001FFC100410041004080807F000001004DA
:102490001FFC1104110417C41004081800001004D4
:1024A0001FFC1104110017C010000800000003E019
:1024B0000C181004100410441C7800400000100494
:1024C0001FFC10840080008010841FFC100400009A
:1024D000100410041FFC100410040000000000038E
:1024E0000001100110011FFE100010000000100478
:1024F0001FFC110403801464181C10040000100455
:102500001FFC1004000400040004000C0000100470
:102510001FFC1F0000FC1F001FFC10040000100423
:102520001FFC0C04030000E010181FFC100007F053
:102530000808100410041004080807F00000100434
:102540001FFC10841080108010800F00000007F026
:10255000081810241024101C080A07F200001004A8
:102560001FFC1104110011C011300E0C00040000FA
:102570000E1C11041084108410441C380000180034
:10258000100010041FFC10041000180000001000C0
:102590001FF810040004000410041FF810001000BD
:1025A0001E0011E0001C007013801C0010001FC0F2
:1025B000103C00E01F0000E0103C1FC000001004B1
:1025C000180C163401C001C01634180C1004100089
:1025D0001C00130400FC13041C001000000008047D
:1025E000101C1064108413041C0410180000000058
:1025F000000000007FFE4002400240020000000098
:1026000030000C0003800060001C0003000000008C
:102610004002400240027FFE000000000000000077
:1026200000002000400040004000200000000001A9
:102630000001000100010001000100010001000093
:1026400040004000200000000000000000000000EA
:102650000098012401440144014400FC00041000DE
:102660001FFC0088010401040088007000000000C5
:1026700000700088010401040104008800000000CB
:10268000007000880104010411081FFC0004000010
:1026900000F8014401440144014400C80000000066
:1026A000010401040FFC11041104110018000000C2
:1026B00000D601290129012901C9010600001004E1
:1026C0001FFC008401000100010400FC0004000064
:1026D0000104190419FC00040004000000000000BB
:1026E000000300010101190119FE0000000010049F
:1026F0001FFC0024004001B4010C01040000000094
:10270000100410041FFC0004000400000000010479
:1027100001FC0104010001FC0104010000FC0104B2
:1027200001FC008401000100010400FC0004000021
:1027300000F8010401040104010400F80000010193
:1027400001FF008501040104008800700000000002
:102750000070008801040104010501FF000101046B
:10276000010401FC0084010401000180000000005C
:1027700000CC012401240124012401980000000060
:102780000100010007F8010401040000000001003D
:1027900001F8000400040004010801FC0004010029
:1027A00001800170000C001001600180010001F047
:1027B000010C003001C00030010C01F001000000EC
:1027C0000104018C00740170018C010400000101FE
:1027D00001810171000E00180160018001000000FC
:1027E0000184010C013401440184010C000000004B
:1027F00000000000000001003EFC4002400200001A
:10280000000000000000FFFF0000000000000000CA
:10281000400240023EFC01000000000000000000F9
:102820006000800080004000400020002000000088
:1028300050280008000000201400000028010008B3
:102840006428000814000020640A00004401000805
:102850000000000000000000000000000100000077
:042860000000000074
:04000005080000ED02
:00000001FF
